:100000000C9434000C943E000C943E000C943E0082
:100010000C943E000C943E000C943E000C943E0068
:100020000C943E000C943E000C943E000C943E0058
:100030000C943E000C943E000C943E000C943E0048
:100040000C943E000C943E000C943E000C943E0038
:100050000C943E000C943E000C943E000C943E0028
:100060000C943E000C943E0011241FBECFEFD8E04C
:10007000DEBFCDBF0E946F000C947B000C9400008B
:10008000CF92DF92EF92FF920F931F936C01D69461
:10009000C794E12CF12C00E010E09801A0E0B0E062
:1000A000081719072A073B0798F440E050E0BA0107
:1000B0004C155D056E057F0530F400004F5F5F4F06
:1000C0006F4F7F4FF5CF0F5F1F4F2F4F3F4FE8CF41
:1000D0001F910F91FF90EF90DF90CF900895209A9D
:1000E000289A88EE93E00E944000289888EE93E0DA
:0A00F0000E944000F5CFF894FFCF06
:00000001FF
