:100000000C9434000C9449000C9449000C94490061
:100010000C9449000C9449000C9449000C9449003C
:100020000C9449000C9449000C9449000C9449002C
:100030000C9449000C9449000C9449000C9449001C
:100040000C9449000C9449000C9449000C9449000C
:100050000C9449000C9449000C9449000C944900FC
:100060000C9449000C94490011241FBECFEFD8E036
:10007000DEBFCDBF11E0A0E0B1E0E0E0F1E002C002
:1000800005900D92AE31B107D9F70E9471000C9422
:100090007E000C9400001092C50088E08093C4009C
:1000A000E1ECF0E08081886180830895E0E8F0E091
:1000B000808184608083E6E8F0E088E09DE39183BE
:1000C000808380819181880F991F9093890080930C
:1000D000880008959091C00095FFFCCF8093C600E2
:1000E00008950E9456000E944B00C0E0D1E0899123
:1000F000882319F00E946A00FACFFFCFF894FFCF4F
:10010000436F75636F75204361726F6C696E652014
:0E01100065742048656C656E6520210A00004C
:00000001FF
